{
  "contractName": "Identity",
  "abi": [
    {
      "inputs": [
        {
          "internalType": "address",
          "name": "_userAddress",
          "type": "address"
        }
      ],
      "name": "getUser",
      "outputs": [
        {
          "components": [
            {
              "internalType": "bool",
              "name": "exist",
              "type": "bool"
            },
            {
              "internalType": "string",
              "name": "display_name",
              "type": "string"
            },
            {
              "internalType": "enum Identity.USER_TYPE",
              "name": "user_type",
              "type": "uint8"
            }
          ],
          "internalType": "struct Identity.User",
          "name": "",
          "type": "tuple"
        }
      ],
      "stateMutability": "view",
      "type": "function"
    },
    {
      "inputs": [
        {
          "internalType": "string",
          "name": "_displayName",
          "type": "string"
        }
      ],
      "name": "registerAsCustomer",
      "outputs": [],
      "stateMutability": "nonpayable",
      "type": "function"
    },
    {
      "inputs": [
        {
          "internalType": "string",
          "name": "_displayName",
          "type": "string"
        }
      ],
      "name": "registerAsManufacturer",
      "outputs": [],
      "stateMutability": "nonpayable",
      "type": "function"
    }
  ],
  "bytecode": "0x608060405234801561001057600080fd5b50610a75806100206000396000f3fe608060405234801561001057600080fd5b50600436106100415760003560e01c80636f77926b14610046578063896a1cad14610076578063c98b6bb314610092575b600080fd5b610060600480360381019061005b9190610619565b6100ae565b60405161006d91906107c1565b60405180910390f35b610090600480360381019061008b9190610918565b6101ee565b005b6100ac60048036038101906100a79190610918565b61035f565b005b6100b66104cf565b6000808373ffffffffffffffffffffffffffffffffffffffff1673ffffffffffffffffffffffffffffffffffffffff1681526020019081526020016000206040518060600160405290816000820160009054906101000a900460ff1615151515815260200160018201805461012a90610990565b80601f016020809104026020016040519081016040528092919081815260200182805461015690610990565b80156101a35780601f10610178576101008083540402835291602001916101a3565b820191906000526020600020905b81548152906001019060200180831161018657829003601f168201915b505050505081526020016002820160009054906101000a900460ff1660018111156101d1576101d06106fa565b5b60018111156101e3576101e26106fa565b5b815250509050919050565b6000803373ffffffffffffffffffffffffffffffffffffffff1673ffffffffffffffffffffffffffffffffffffffff16815260200190815260200160002060000160009054906101000a900460ff161561027d576040517f08c379a000000000000000000000000000000000000000000000000000000000815260040161027490610a1f565b60405180910390fd5b6040518060600160405280600115158152602001828152602001600060018111156102ab576102aa6106fa565b5b8152506000803373ffffffffffffffffffffffffffffffffffffffff1673ffffffffffffffffffffffffffffffffffffffff16815260200190815260200160002060008201518160000160006101000a81548160ff0219169083151502179055506020820151816001019080519060200190610328929190610504565b5060408201518160020160006101000a81548160ff02191690836001811115610354576103536106fa565b5b021790555090505050565b6000803373ffffffffffffffffffffffffffffffffffffffff1673ffffffffffffffffffffffffffffffffffffffff16815260200190815260200160002060000160009054906101000a900460ff16156103ee576040517f08c379a00000000000000000000000000000000000000000000000000000000081526004016103e590610a1f565b60405180910390fd5b604051806060016040528060011515815260200182815260200160018081111561041b5761041a6106fa565b5b8152506000803373ffffffffffffffffffffffffffffffffffffffff1673ffffffffffffffffffffffffffffffffffffffff16815260200190815260200160002060008201518160000160006101000a81548160ff0219169083151502179055506020820151816001019080519060200190610498929190610504565b5060408201518160020160006101000a81548160ff021916908360018111156104c4576104c36106fa565b5b021790555090505050565b604051806060016040528060001515815260200160608152602001600060018111156104fe576104fd6106fa565b5b81525090565b82805461051090610990565b90600052602060002090601f0160209004810192826105325760008555610579565b82601f1061054b57805160ff1916838001178555610579565b82800160010185558215610579579182015b8281111561057857825182559160200191906001019061055d565b5b509050610586919061058a565b5090565b5b808211156105a357600081600090555060010161058b565b5090565b6000604051905090565b600080fd5b600080fd5b600073ffffffffffffffffffffffffffffffffffffffff82169050919050565b60006105e6826105bb565b9050919050565b6105f6816105db565b811461060157600080fd5b50565b600081359050610613816105ed565b92915050565b60006020828403121561062f5761062e6105b1565b5b600061063d84828501610604565b91505092915050565b60008115159050919050565b61065b81610646565b82525050565b600081519050919050565b600082825260208201905092915050565b60005b8381101561069b578082015181840152602081019050610680565b838111156106aa576000848401525b50505050565b6000601f19601f8301169050919050565b60006106cc82610661565b6106d6818561066c565b93506106e681856020860161067d565b6106ef816106b0565b840191505092915050565b7f4e487b7100000000000000000000000000000000000000000000000000000000600052602160045260246000fd5b6002811061073a576107396106fa565b5b50565b600081905061074b82610729565b919050565b600061075b8261073d565b9050919050565b61076b81610750565b82525050565b60006060830160008301516107896000860182610652565b50602083015184820360208601526107a182826106c1565b91505060408301516107b66040860182610762565b508091505092915050565b600060208201905081810360008301526107db8184610771565b905092915050565b600080fd5b600080fd5b7f4e487b7100000000000000000000000000000000000000000000000000000000600052604160045260246000fd5b610825826106b0565b810181811067ffffffffffffffff82111715610844576108436107ed565b5b80604052505050565b60006108576105a7565b9050610863828261081c565b919050565b600067ffffffffffffffff821115610883576108826107ed565b5b61088c826106b0565b9050602081019050919050565b82818337600083830152505050565b60006108bb6108b684610868565b61084d565b9050828152602081018484840111156108d7576108d66107e8565b5b6108e2848285610899565b509392505050565b600082601f8301126108ff576108fe6107e3565b5b813561090f8482602086016108a8565b91505092915050565b60006020828403121561092e5761092d6105b1565b5b600082013567ffffffffffffffff81111561094c5761094b6105b6565b5b610958848285016108ea565b91505092915050565b7f4e487b7100000000000000000000000000000000000000000000000000000000600052602260045260246000fd5b600060028204905060018216806109a857607f821691505b602082108114156109bc576109bb610961565b5b50919050565b600082825260208201905092915050565b7f5573657220616c72656164792065786973747300000000000000000000000000600082015250565b6000610a096013836109c2565b9150610a14826109d3565b602082019050919050565b60006020820190508181036000830152610a38816109fc565b905091905056fea26469706673582212200c0bab618daec4563c3a701347ccab1821b4f11cc93c42285929e7580ecb728d64736f6c634300080a0033",
  "immutableReferences": {},
  "source": "// SPDX-License-Identifier: UNLICENSED\npragma solidity >=0.8.10;\n\n/// @title Identity Tracking Contract\n/// @author Fauzan Lubis (fauh45)\n/// @dev Hold customer and manufacturer identity (address, display name, and type of user)\ncontract Identity {\n    // Customer in this case are the MSEs\n    enum USER_TYPE {\n        MANUFACTURER,\n        CONSUMER\n    }\n\n    struct User {\n        bool exist;\n        string display_name;\n        USER_TYPE user_type;\n    }\n\n    mapping(address => User) internal users;\n\n    modifier userExist(address _userAddress) {\n        require(users[_userAddress].exist, \"User does not exists\");\n        _;\n    }\n\n    modifier customerOnly(address _userAddress) {\n        require(\n            users[_userAddress].user_type == USER_TYPE.CONSUMER,\n            \"User are not customer\"\n        );\n        _;\n    }\n\n    modifier manufacturerOnly(address _userAddress) {\n        require(\n            users[_userAddress].user_type == USER_TYPE.MANUFACTURER,\n            \"User are not manufacturer\"\n        );\n        _;\n    }\n\n    function getUser(address _userAddress) external view returns (User memory) {\n        return users[_userAddress];\n    }\n\n    function registerAsCustomer(string memory _displayName) external {\n        require(!users[msg.sender].exist, \"User already exists\");\n\n        // No need to check for user type, as if the user already exist\n        // then user must be either MANUFACTURER or CUSTOMER\n\n        users[msg.sender] = User(true, _displayName, USER_TYPE.CONSUMER);\n    }\n\n    function registerAsManufacturer(string memory _displayName) external {\n        require(!users[msg.sender].exist, \"User already exists\");\n\n        // No need to check for user type, as if the user already exist\n        // then user must be either MANUFACTURER or CUSTOMER\n\n        users[msg.sender] = User(true, _displayName, USER_TYPE.MANUFACTURER);\n    }\n}\n",
  "sourcePath": "D:\\Code\\trackr\\smart-contract\\contracts\\Identity.sol",
  "compiler": {
    "name": "solc",
    "version": "0.8.10+commit.fc410830.Emscripten.clang"
  },
  "schemaVersion": "3.4.3",
  "updatedAt": "2021-11-20T15:38:30.646Z",
  "devdoc": {
    "author": "Fauzan Lubis (fauh45)",
    "details": "Hold customer and manufacturer identity (address, display name, and type of user)",
    "kind": "dev",
    "methods": {},
    "title": "Identity Tracking Contract",
    "version": 1
  },
  "userdoc": {
    "kind": "user",
    "methods": {},
    "version": 1
  }
}