{
  "contractName": "Trackr",
  "abi": [
    {
      "anonymous": false,
      "inputs": [
        {
          "indexed": true,
          "internalType": "uint256",
          "name": "_goodsId",
          "type": "uint256"
        },
        {
          "indexed": true,
          "internalType": "address",
          "name": "_to",
          "type": "address"
        },
        {
          "indexed": true,
          "internalType": "address",
          "name": "_owner",
          "type": "address"
        },
        {
          "indexed": false,
          "internalType": "string",
          "name": "_reason",
          "type": "string"
        }
      ],
      "name": "ItemChangeHands",
      "type": "event"
    },
    {
      "anonymous": false,
      "inputs": [
        {
          "indexed": true,
          "internalType": "address",
          "name": "previousOwner",
          "type": "address"
        },
        {
          "indexed": true,
          "internalType": "address",
          "name": "newOwner",
          "type": "address"
        }
      ],
      "name": "OwnershipTransferred",
      "type": "event"
    },
    {
      "inputs": [
        {
          "internalType": "address",
          "name": "_userAddress",
          "type": "address"
        }
      ],
      "name": "getUser",
      "outputs": [
        {
          "components": [
            {
              "internalType": "bool",
              "name": "exist",
              "type": "bool"
            },
            {
              "internalType": "string",
              "name": "display_name",
              "type": "string"
            },
            {
              "internalType": "enum Identity.USER_TYPE",
              "name": "user_type",
              "type": "uint8"
            }
          ],
          "internalType": "struct Identity.User",
          "name": "",
          "type": "tuple"
        }
      ],
      "stateMutability": "view",
      "type": "function",
      "constant": true
    },
    {
      "inputs": [],
      "name": "owner",
      "outputs": [
        {
          "internalType": "address",
          "name": "",
          "type": "address"
        }
      ],
      "stateMutability": "view",
      "type": "function",
      "constant": true
    },
    {
      "inputs": [
        {
          "internalType": "string",
          "name": "_displayName",
          "type": "string"
        }
      ],
      "name": "registerAsCustomer",
      "outputs": [],
      "stateMutability": "nonpayable",
      "type": "function"
    },
    {
      "inputs": [
        {
          "internalType": "string",
          "name": "_displayName",
          "type": "string"
        }
      ],
      "name": "registerAsManufacturer",
      "outputs": [],
      "stateMutability": "nonpayable",
      "type": "function"
    },
    {
      "inputs": [],
      "name": "renounceOwnership",
      "outputs": [],
      "stateMutability": "nonpayable",
      "type": "function"
    },
    {
      "inputs": [
        {
          "internalType": "address",
          "name": "newOwner",
          "type": "address"
        }
      ],
      "name": "transferOwnership",
      "outputs": [],
      "stateMutability": "nonpayable",
      "type": "function"
    },
    {
      "inputs": [
        {
          "internalType": "uint256",
          "name": "_goodsId",
          "type": "uint256"
        }
      ],
      "name": "getGoods",
      "outputs": [
        {
          "components": [
            {
              "internalType": "bool",
              "name": "exist",
              "type": "bool"
            },
            {
              "internalType": "bool",
              "name": "locked",
              "type": "bool"
            },
            {
              "internalType": "uint256",
              "name": "id",
              "type": "uint256"
            },
            {
              "internalType": "string",
              "name": "displayName",
              "type": "string"
            },
            {
              "internalType": "address",
              "name": "owner",
              "type": "address"
            },
            {
              "internalType": "address",
              "name": "currentCustody",
              "type": "address"
            },
            {
              "internalType": "address[]",
              "name": "custodyList",
              "type": "address[]"
            }
          ],
          "internalType": "struct Trackr.Goods",
          "name": "",
          "type": "tuple"
        }
      ],
      "stateMutability": "view",
      "type": "function",
      "constant": true
    },
    {
      "inputs": [],
      "name": "getUserGoodsList",
      "outputs": [
        {
          "internalType": "uint256[]",
          "name": "",
          "type": "uint256[]"
        }
      ],
      "stateMutability": "view",
      "type": "function",
      "constant": true
    },
    {
      "inputs": [],
      "name": "getUserCustodyList",
      "outputs": [
        {
          "internalType": "uint256[]",
          "name": "",
          "type": "uint256[]"
        }
      ],
      "stateMutability": "view",
      "type": "function",
      "constant": true
    },
    {
      "inputs": [
        {
          "internalType": "string",
          "name": "_displayName",
          "type": "string"
        },
        {
          "internalType": "address",
          "name": "_goodsOwner",
          "type": "address"
        }
      ],
      "name": "createGood",
      "outputs": [],
      "stateMutability": "nonpayable",
      "type": "function"
    },
    {
      "inputs": [
        {
          "internalType": "uint256",
          "name": "_goodsId",
          "type": "uint256"
        },
        {
          "internalType": "address",
          "name": "_to",
          "type": "address"
        }
      ],
      "name": "moveCustody",
      "outputs": [],
      "stateMutability": "nonpayable",
      "type": "function"
    },
    {
      "inputs": [
        {
          "internalType": "uint256",
          "name": "_goodsId",
          "type": "uint256"
        },
        {
          "internalType": "bool",
          "name": "_lockStatus",
          "type": "bool"
        }
      ],
      "name": "lockGoods",
      "outputs": [],
      "stateMutability": "nonpayable",
      "type": "function"
    }
  ],
  "bytecode": "0x60806040523480156200001157600080fd5b5062000032620000266200003860201b60201c565b6200004060201b60201c565b62000106565b600033905090565b6000600160009054906101000a900473ffffffffffffffffffffffffffffffffffffffff16905081600160006101000a81548173ffffffffffffffffffffffffffffffffffffffff021916908373ffffffffffffffffffffffffffffffffffffffff1602179055508173ffffffffffffffffffffffffffffffffffffffff168173ffffffffffffffffffffffffffffffffffffffff167f8be0079c531659141344cd1fd0a4f28419497f9722a3daafe3b4186f6b6457e060405160405180910390a35050565b612b3280620001166000396000f3fe608060405234801561001057600080fd5b50600436106100b45760003560e01c80637e0a81a2116100715780637e0a81a214610165578063896a1cad146101835780638da5cb5b1461019f578063b2590033146101bd578063c98b6bb3146101ed578063f2fde38b14610209576100b4565b8063241c7c43146100b95780633cfa7bb5146100d55780634036ff4f146100f35780636bae0c1a1461010f5780636f77926b1461012b578063715018a61461015b575b600080fd5b6100d360048036038101906100ce9190611ba4565b610225565b005b6100dd610600565b6040516100ea9190611ca2565b60405180910390f35b61010d60048036038101906101089190611e0a565b610695565b005b61012960048036038101906101249190611e9e565b610ae2565b005b61014560048036038101906101409190611ede565b610c1d565b6040516101529190612069565b60405180910390f35b610163610d5d565b005b61016d610de5565b60405161017a9190611ca2565b60405180910390f35b61019d6004803603810190610198919061208b565b610e7a565b005b6101a7610feb565b6040516101b491906120e3565b60405180910390f35b6101d760048036038101906101d291906120fe565b611015565b6040516101e4919061228c565b60405180910390f35b6102076004803603810190610202919061208b565b61124e565b005b610223600480360381019061021e9190611ede565b6113be565b005b816002600082815260200190815260200160002060000160009054906101000a900460ff16610289576040517f08c379a00000000000000000000000000000000000000000000000000000000081526004016102809061230b565b60405180910390fd5b82338073ffffffffffffffffffffffffffffffffffffffff166002600084815260200190815260200160002060040160009054906101000a900473ffffffffffffffffffffffffffffffffffffffff1673ffffffffffffffffffffffffffffffffffffffff161461032f576040517f08c379a00000000000000000000000000000000000000000000000000000000081526004016103269061239d565b60405180910390fd5b836000808273ffffffffffffffffffffffffffffffffffffffff1673ffffffffffffffffffffffffffffffffffffffff16815260200190815260200160002060000160009054906101000a900460ff166103be576040517f08c379a00000000000000000000000000000000000000000000000000000000081526004016103b590612409565b60405180910390fd5b6002600087815260200190815260200160002060000160019054906101000a900460ff1615610422576040517f08c379a00000000000000000000000000000000000000000000000000000000081526004016104199061249b565b60405180910390fd5b846002600088815260200190815260200160002060040160006101000a81548173ffffffffffffffffffffffffffffffffffffffff021916908373ffffffffffffffffffffffffffffffffffffffff16021790555060026000878152602001908152602001600020600501859080600181540180825580915050600190039060005260206000200160009091909190916101000a81548173ffffffffffffffffffffffffffffffffffffffff021916908373ffffffffffffffffffffffffffffffffffffffff1602179055506104f886336114b6565b600460008673ffffffffffffffffffffffffffffffffffffffff1673ffffffffffffffffffffffffffffffffffffffff1681526020019081526020016000208690806001815401808255809150506001900390600052602060002001600090919091909150556002600087815260200190815260200160002060030160009054906101000a900473ffffffffffffffffffffffffffffffffffffffff1673ffffffffffffffffffffffffffffffffffffffff168573ffffffffffffffffffffffffffffffffffffffff16877f5319b2e64716e2bff94b11e02957b625f479996ac3a535d27678a61f9c412a916040516105f090612507565b60405180910390a4505050505050565b6060600360003373ffffffffffffffffffffffffffffffffffffffff1673ffffffffffffffffffffffffffffffffffffffff16815260200190815260200160002080548060200260200160405190810160405280929190818152602001828054801561068b57602002820191906000526020600020905b815481526020019060010190808311610677575b5050505050905090565b33600060018111156106aa576106a9611fa2565b5b6000808373ffffffffffffffffffffffffffffffffffffffff1673ffffffffffffffffffffffffffffffffffffffff16815260200190815260200160002060020160009054906101000a900460ff16600181111561070b5761070a611fa2565b5b1461074b576040517f08c379a000000000000000000000000000000000000000000000000000000000815260040161074290612573565b60405180910390fd5b816000808273ffffffffffffffffffffffffffffffffffffffff1673ffffffffffffffffffffffffffffffffffffffff16815260200190815260200160002060000160009054906101000a900460ff166107da576040517f08c379a00000000000000000000000000000000000000000000000000000000081526004016107d190612409565b60405180910390fd5b60006107e4611620565b905060016002600083815260200190815260200160002060000160006101000a81548160ff02191690831515021790555060006002600083815260200190815260200160002060000160016101000a81548160ff021916908315150217905550806002600083815260200190815260200160002060010181905550846002600083815260200190815260200160002060020190805190602001906108899291906119b7565b50836002600083815260200190815260200160002060030160006101000a81548173ffffffffffffffffffffffffffffffffffffffff021916908373ffffffffffffffffffffffffffffffffffffffff160217905550336002600083815260200190815260200160002060040160006101000a81548173ffffffffffffffffffffffffffffffffffffffff021916908373ffffffffffffffffffffffffffffffffffffffff16021790555060026000828152602001908152602001600020600501339080600181540180825580915050600190039060005260206000200160009091909190916101000a81548173ffffffffffffffffffffffffffffffffffffffff021916908373ffffffffffffffffffffffffffffffffffffffff160217905550600360008573ffffffffffffffffffffffffffffffffffffffff1673ffffffffffffffffffffffffffffffffffffffff168152602001908152602001600020819080600181540180825580915050600190039060005260206000200160009091909190915055600460003373ffffffffffffffffffffffffffffffffffffffff1673ffffffffffffffffffffffffffffffffffffffff1681526020019081526020016000208190806001815401808255809150506001900390600052602060002001600090919091909150558373ffffffffffffffffffffffffffffffffffffffff163373ffffffffffffffffffffffffffffffffffffffff16827f5319b2e64716e2bff94b11e02957b625f479996ac3a535d27678a61f9c412a91604051610ad3906125df565b60405180910390a45050505050565b816002600082815260200190815260200160002060000160009054906101000a900460ff16610b46576040517f08c379a0000000000000000000000000000000000000000000000000000000008152600401610b3d9061230b565b60405180910390fd5b3373ffffffffffffffffffffffffffffffffffffffff166002600085815260200190815260200160002060030160009054906101000a900473ffffffffffffffffffffffffffffffffffffffff1673ffffffffffffffffffffffffffffffffffffffff1614610bea576040517f08c379a0000000000000000000000000000000000000000000000000000000008152600401610be19061264b565b60405180910390fd5b816002600085815260200190815260200160002060000160016101000a81548160ff021916908315150217905550505050565b610c25611a3d565b6000808373ffffffffffffffffffffffffffffffffffffffff1673ffffffffffffffffffffffffffffffffffffffff1681526020019081526020016000206040518060600160405290816000820160009054906101000a900460ff16151515158152602001600182018054610c999061269a565b80601f0160208091040260200160405190810160405280929190818152602001828054610cc59061269a565b8015610d125780601f10610ce757610100808354040283529160200191610d12565b820191906000526020600020905b815481529060010190602001808311610cf557829003601f168201915b505050505081526020016002820160009054906101000a900460ff166001811115610d4057610d3f611fa2565b5b6001811115610d5257610d51611fa2565b5b815250509050919050565b610d65611718565b73ffffffffffffffffffffffffffffffffffffffff16610d83610feb565b73ffffffffffffffffffffffffffffffffffffffff1614610dd9576040517f08c379a0000000000000000000000000000000000000000000000000000000008152600401610dd090612718565b60405180910390fd5b610de36000611720565b565b6060600460003373ffffffffffffffffffffffffffffffffffffffff1673ffffffffffffffffffffffffffffffffffffffff168152602001908152602001600020805480602002602001604051908101604052809291908181526020018280548015610e7057602002820191906000526020600020905b815481526020019060010190808311610e5c575b5050505050905090565b6000803373ffffffffffffffffffffffffffffffffffffffff1673ffffffffffffffffffffffffffffffffffffffff16815260200190815260200160002060000160009054906101000a900460ff1615610f09576040517f08c379a0000000000000000000000000000000000000000000000000000000008152600401610f0090612784565b60405180910390fd5b604051806060016040528060011515815260200182815260200160006001811115610f3757610f36611fa2565b5b8152506000803373ffffffffffffffffffffffffffffffffffffffff1673ffffffffffffffffffffffffffffffffffffffff16815260200190815260200160002060008201518160000160006101000a81548160ff0219169083151502179055506020820151816001019080519060200190610fb49291906119b7565b5060408201518160020160006101000a81548160ff02191690836001811115610fe057610fdf611fa2565b5b021790555090505050565b6000600160009054906101000a900473ffffffffffffffffffffffffffffffffffffffff16905090565b61101d611a72565b600260008381526020019081526020016000206040518060e00160405290816000820160009054906101000a900460ff161515151581526020016000820160019054906101000a900460ff161515151581526020016001820154815260200160028201805461108b9061269a565b80601f01602080910402602001604051908101604052809291908181526020018280546110b79061269a565b80156111045780601f106110d957610100808354040283529160200191611104565b820191906000526020600020905b8154815290600101906020018083116110e757829003601f168201915b505050505081526020016003820160009054906101000a900473ffffffffffffffffffffffffffffffffffffffff1673ffffffffffffffffffffffffffffffffffffffff1673ffffffffffffffffffffffffffffffffffffffff1681526020016004820160009054906101000a900473ffffffffffffffffffffffffffffffffffffffff1673ffffffffffffffffffffffffffffffffffffffff1673ffffffffffffffffffffffffffffffffffffffff1681526020016005820180548060200260200160405190810160405280929190818152602001828054801561123e57602002820191906000526020600020905b8160009054906101000a900473ffffffffffffffffffffffffffffffffffffffff1673ffffffffffffffffffffffffffffffffffffffff16815260200190600101908083116111f4575b5050505050815250509050919050565b6000803373ffffffffffffffffffffffffffffffffffffffff1673ffffffffffffffffffffffffffffffffffffffff16815260200190815260200160002060000160009054906101000a900460ff16156112dd576040517f08c379a00000000000000000000000000000000000000000000000000000000081526004016112d490612784565b60405180910390fd5b604051806060016040528060011515815260200182815260200160018081111561130a57611309611fa2565b5b8152506000803373ffffffffffffffffffffffffffffffffffffffff1673ffffffffffffffffffffffffffffffffffffffff16815260200190815260200160002060008201518160000160006101000a81548160ff02191690831515021790555060208201518160010190805190602001906113879291906119b7565b5060408201518160020160006101000a81548160ff021916908360018111156113b3576113b2611fa2565b5b021790555090505050565b6113c6611718565b73ffffffffffffffffffffffffffffffffffffffff166113e4610feb565b73ffffffffffffffffffffffffffffffffffffffff161461143a576040517f08c379a000000000000000000000000000000000000000000000000000000000815260040161143190612718565b60405180910390fd5b600073ffffffffffffffffffffffffffffffffffffffff168173ffffffffffffffffffffffffffffffffffffffff1614156114aa576040517f08c379a00000000000000000000000000000000000000000000000000000000081526004016114a190612816565b60405180910390fd5b6114b381611720565b50565b60006001600460008473ffffffffffffffffffffffffffffffffffffffff1673ffffffffffffffffffffffffffffffffffffffff168152602001908152602001600020805490506115079190612865565b905060005b81811161161a5783600460008573ffffffffffffffffffffffffffffffffffffffff1673ffffffffffffffffffffffffffffffffffffffff168152602001908152602001600020828154811061156557611564612899565b5b906000526020600020015414156115855761158081846117e6565b61161a565b83600460008573ffffffffffffffffffffffffffffffffffffffff1673ffffffffffffffffffffffffffffffffffffffff16815260200190815260200160002083815481106115d7576115d6612899565b5b906000526020600020015414156115f7576115f282846117e6565b61161a565b60018161160491906128c8565b90506001826116139190612865565b915061150c565b50505050565b6000804342336040516020016116369190612966565b6040516020818303038152906040528051906020012060001c61165991906129b0565b45424160405160200161166c9190612a1c565b6040516020818303038152906040528051906020012060001c61168f91906129b0565b444261169b91906128c8565b6116a591906128c8565b6116af91906128c8565b6116b991906128c8565b6116c391906128c8565b6040516020016116d39190612a58565b6040516020818303038152906040528051906020012060001c90506103e880826116fd91906129b0565b6117079190612a73565b816117129190612865565b91505090565b600033905090565b6000600160009054906101000a900473ffffffffffffffffffffffffffffffffffffffff16905081600160006101000a81548173ffffffffffffffffffffffffffffffffffffffff021916908373ffffffffffffffffffffffffffffffffffffffff1602179055508173ffffffffffffffffffffffffffffffffffffffff168173ffffffffffffffffffffffffffffffffffffffff167f8be0079c531659141344cd1fd0a4f28419497f9722a3daafe3b4186f6b6457e060405160405180910390a35050565b600460008273ffffffffffffffffffffffffffffffffffffffff1673ffffffffffffffffffffffffffffffffffffffff168152602001908152602001600020828154811061183757611836612899565b5b9060005260206000200160009055600460008273ffffffffffffffffffffffffffffffffffffffff1673ffffffffffffffffffffffffffffffffffffffff1681526020019081526020016000206001600460008473ffffffffffffffffffffffffffffffffffffffff1673ffffffffffffffffffffffffffffffffffffffff168152602001908152602001600020805490506118d39190612865565b815481106118e4576118e3612899565b5b9060005260206000200154600460008373ffffffffffffffffffffffffffffffffffffffff1673ffffffffffffffffffffffffffffffffffffffff16815260200190815260200160002083815481106119405761193f612899565b5b9060005260206000200181905550600460008273ffffffffffffffffffffffffffffffffffffffff1673ffffffffffffffffffffffffffffffffffffffff16815260200190815260200160002080548061199d5761199c612acd565b5b600190038181906000526020600020016000905590555050565b8280546119c39061269a565b90600052602060002090601f0160209004810192826119e55760008555611a2c565b82601f106119fe57805160ff1916838001178555611a2c565b82800160010185558215611a2c579182015b82811115611a2b578251825591602001919060010190611a10565b5b509050611a399190611adf565b5090565b60405180606001604052806000151581526020016060815260200160006001811115611a6c57611a6b611fa2565b5b81525090565b6040518060e001604052806000151581526020016000151581526020016000815260200160608152602001600073ffffffffffffffffffffffffffffffffffffffff168152602001600073ffffffffffffffffffffffffffffffffffffffff168152602001606081525090565b5b80821115611af8576000816000905550600101611ae0565b5090565b6000604051905090565b600080fd5b600080fd5b6000819050919050565b611b2381611b10565b8114611b2e57600080fd5b50565b600081359050611b4081611b1a565b92915050565b600073ffffffffffffffffffffffffffffffffffffffff82169050919050565b6000611b7182611b46565b9050919050565b611b8181611b66565b8114611b8c57600080fd5b50565b600081359050611b9e81611b78565b92915050565b60008060408385031215611bbb57611bba611b06565b5b6000611bc985828601611b31565b9250506020611bda85828601611b8f565b9150509250929050565b600081519050919050565b600082825260208201905092915050565b6000819050602082019050919050565b611c1981611b10565b82525050565b6000611c2b8383611c10565b60208301905092915050565b6000602082019050919050565b6000611c4f82611be4565b611c598185611bef565b9350611c6483611c00565b8060005b83811015611c95578151611c7c8882611c1f565b9750611c8783611c37565b925050600181019050611c68565b5085935050505092915050565b60006020820190508181036000830152611cbc8184611c44565b905092915050565b600080fd5b600080fd5b6000601f19601f8301169050919050565b7f4e487b7100000000000000000000000000000000000000000000000000000000600052604160045260246000fd5b611d1782611cce565b810181811067ffffffffffffffff82111715611d3657611d35611cdf565b5b80604052505050565b6000611d49611afc565b9050611d558282611d0e565b919050565b600067ffffffffffffffff821115611d7557611d74611cdf565b5b611d7e82611cce565b9050602081019050919050565b82818337600083830152505050565b6000611dad611da884611d5a565b611d3f565b905082815260208101848484011115611dc957611dc8611cc9565b5b611dd4848285611d8b565b509392505050565b600082601f830112611df157611df0611cc4565b5b8135611e01848260208601611d9a565b91505092915050565b60008060408385031215611e2157611e20611b06565b5b600083013567ffffffffffffffff811115611e3f57611e3e611b0b565b5b611e4b85828601611ddc565b9250506020611e5c85828601611b8f565b9150509250929050565b60008115159050919050565b611e7b81611e66565b8114611e8657600080fd5b50565b600081359050611e9881611e72565b92915050565b60008060408385031215611eb557611eb4611b06565b5b6000611ec385828601611b31565b9250506020611ed485828601611e89565b9150509250929050565b600060208284031215611ef457611ef3611b06565b5b6000611f0284828501611b8f565b91505092915050565b611f1481611e66565b82525050565b600081519050919050565b600082825260208201905092915050565b60005b83811015611f54578082015181840152602081019050611f39565b83811115611f63576000848401525b50505050565b6000611f7482611f1a565b611f7e8185611f25565b9350611f8e818560208601611f36565b611f9781611cce565b840191505092915050565b7f4e487b7100000000000000000000000000000000000000000000000000000000600052602160045260246000fd5b60028110611fe257611fe1611fa2565b5b50565b6000819050611ff382611fd1565b919050565b600061200382611fe5565b9050919050565b61201381611ff8565b82525050565b60006060830160008301516120316000860182611f0b565b50602083015184820360208601526120498282611f69565b915050604083015161205e604086018261200a565b508091505092915050565b600060208201905081810360008301526120838184612019565b905092915050565b6000602082840312156120a1576120a0611b06565b5b600082013567ffffffffffffffff8111156120bf576120be611b0b565b5b6120cb84828501611ddc565b91505092915050565b6120dd81611b66565b82525050565b60006020820190506120f860008301846120d4565b92915050565b60006020828403121561211457612113611b06565b5b600061212284828501611b31565b91505092915050565b61213481611b66565b82525050565b600081519050919050565b600082825260208201905092915050565b6000819050602082019050919050565b6000612172838361212b565b60208301905092915050565b6000602082019050919050565b60006121968261213a565b6121a08185612145565b93506121ab83612156565b8060005b838110156121dc5781516121c38882612166565b97506121ce8361217e565b9250506001810190506121af565b5085935050505092915050565b600060e0830160008301516122016000860182611f0b565b5060208301516122146020860182611f0b565b5060408301516122276040860182611c10565b506060830151848203606086015261223f8282611f69565b9150506080830151612254608086018261212b565b5060a083015161226760a086018261212b565b5060c083015184820360c086015261227f828261218b565b9150508091505092915050565b600060208201905081810360008301526122a681846121e9565b905092915050565b600082825260208201905092915050565b7f476f6f647320646f65736e277420657869737400000000000000000000000000600082015250565b60006122f56013836122ae565b9150612300826122bf565b602082019050919050565b60006020820190508181036000830152612324816122e8565b9050919050565b7f55736572206172652063757272656e746c79206e6f7420696e20637573746f6460008201527f79206f662074686520676f6f6473000000000000000000000000000000000000602082015250565b6000612387602e836122ae565b91506123928261232b565b604082019050919050565b600060208201905081810360008301526123b68161237a565b9050919050565b7f5573657220646f6573206e6f7420657869737473000000000000000000000000600082015250565b60006123f36014836122ae565b91506123fe826123bd565b602082019050919050565b60006020820190508181036000830152612422816123e6565b9050919050565b7f4f776e657220686173206c6f636b6564206368616e6765206f6620637573746f60008201527f6479000000000000000000000000000000000000000000000000000000000000602082015250565b60006124856022836122ae565b915061249082612429565b604082019050919050565b600060208201905081810360008301526124b481612478565b9050919050565b7f476f6f6473206368616e67656420637573746f64790000000000000000000000600082015250565b60006124f16015836122ae565b91506124fc826124bb565b602082019050919050565b60006020820190508181036000830152612520816124e4565b9050919050565b7f5573657220617265206e6f74206d616e75666163747572657200000000000000600082015250565b600061255d6019836122ae565b915061256882612527565b602082019050919050565b6000602082019050818103600083015261258c81612550565b9050919050565b7f476f6f6473206d616e7566616374757265640000000000000000000000000000600082015250565b60006125c96012836122ae565b91506125d482612593565b602082019050919050565b600060208201905081810360008301526125f8816125bc565b9050919050565b7f5573657220617265206e6f742074686520676f6f6473206f776e657200000000600082015250565b6000612635601c836122ae565b9150612640826125ff565b602082019050919050565b6000602082019050818103600083015261266481612628565b9050919050565b7f4e487b7100000000000000000000000000000000000000000000000000000000600052602260045260246000fd5b600060028204905060018216806126b257607f821691505b602082108114156126c6576126c561266b565b5b50919050565b7f4f776e61626c653a2063616c6c6572206973206e6f7420746865206f776e6572600082015250565b60006127026020836122ae565b915061270d826126cc565b602082019050919050565b60006020820190508181036000830152612731816126f5565b9050919050565b7f5573657220616c72656164792065786973747300000000000000000000000000600082015250565b600061276e6013836122ae565b915061277982612738565b602082019050919050565b6000602082019050818103600083015261279d81612761565b9050919050565b7f4f776e61626c653a206e6577206f776e657220697320746865207a65726f206160008201527f6464726573730000000000000000000000000000000000000000000000000000602082015250565b60006128006026836122ae565b915061280b826127a4565b604082019050919050565b6000602082019050818103600083015261282f816127f3565b9050919050565b7f4e487b7100000000000000000000000000000000000000000000000000000000600052601160045260246000fd5b600061287082611b10565b915061287b83611b10565b92508282101561288e5761288d612836565b5b828203905092915050565b7f4e487b7100000000000000000000000000000000000000000000000000000000600052603260045260246000fd5b60006128d382611b10565b91506128de83611b10565b9250827fffffffffffffffffffffffffffffffffffffffffffffffffffffffffffffffff0382111561291357612912612836565b5b828201905092915050565b60008160601b9050919050565b60006129368261291e565b9050919050565b60006129488261292b565b9050919050565b61296061295b82611b66565b61293d565b82525050565b6000612972828461294f565b60148201915081905092915050565b7f4e487b7100000000000000000000000000000000000000000000000000000000600052601260045260246000fd5b60006129bb82611b10565b91506129c683611b10565b9250826129d6576129d5612981565b5b828204905092915050565b60006129ec82611b46565b9050919050565b60006129fe8261292b565b9050919050565b612a16612a11826129e1565b6129f3565b82525050565b6000612a288284612a05565b60148201915081905092915050565b6000819050919050565b612a52612a4d82611b10565b612a37565b82525050565b6000612a648284612a41565b60208201915081905092915050565b6000612a7e82611b10565b9150612a8983611b10565b9250817fffffffffffffffffffffffffffffffffffffffffffffffffffffffffffffffff0483118215151615612ac257612ac1612836565b5b828202905092915050565b7f4e487b7100000000000000000000000000000000000000000000000000000000600052603160045260246000fdfea2646970667358221220d2dc8ec86baa3c2a49939bcfd4c1bf15267c1c0d875dcb56bb6b070c444e126d64736f6c634300080a0033",
  "immutableReferences": {},
  "source": "// SPDX-License-Identifier: UNLICENSED\r\npragma solidity >=0.8.10;\r\n\r\nimport \"./Identity.sol\";\r\nimport \"@openzeppelin/contracts/access/Ownable.sol\";\r\n\r\ncontract Trackr is Identity, Ownable {\r\n    struct Goods {\r\n        bool exist;\r\n        bool locked;\r\n        uint256 id;\r\n        string displayName;\r\n        address owner;\r\n        address currentCustody;\r\n        address[] custodyList;\r\n    }\r\n\r\n    event ItemChangeHands(\r\n        uint256 indexed _goodsId,\r\n        address indexed _to,\r\n        address indexed _owner,\r\n        string _reason\r\n    );\r\n\r\n    /// @dev This variable will hold all of the goods, with the id being a uint256\r\n    mapping(uint256 => Goods) private _allGoods;\r\n\r\n    /// @dev This variable holds all of goods id owned by some address\r\n    mapping(address => uint256[]) private _goodsList;\r\n\r\n    /// @dev This variable hold all of the item a user has custody currently\r\n    mapping(address => uint256[]) private _custodyList;\r\n\r\n    modifier goodsExist(uint256 _goodsId) {\r\n        require(_allGoods[_goodsId].exist, \"Goods doesn't exist\");\r\n        _;\r\n    }\r\n\r\n    modifier inCustody(uint256 _goodsId, address _user) {\r\n        require(\r\n            _allGoods[_goodsId].currentCustody == _user,\r\n            \"User are currently not in custody of the goods\"\r\n        );\r\n        _;\r\n    }\r\n\r\n    function getGoods(uint256 _goodsId) external view returns (Goods memory) {\r\n        return _allGoods[_goodsId];\r\n    }\r\n\r\n    function getUserGoodsList() external view returns (uint256[] memory) {\r\n        return _goodsList[msg.sender];\r\n    }\r\n\r\n    function getUserCustodyList() external view returns (uint256[] memory) {\r\n        return _custodyList[msg.sender];\r\n    }\r\n\r\n    /// @dev Creates pseudo-random id in uint256 format, source : https://stackoverflow.com/a/58840890\r\n    function rand() private view returns (uint256) {\r\n        uint256 seed = uint256(\r\n            keccak256(\r\n                abi.encodePacked(\r\n                    block.timestamp +\r\n                        block.difficulty +\r\n                        ((\r\n                            uint256(keccak256(abi.encodePacked(block.coinbase)))\r\n                        ) / (block.timestamp)) +\r\n                        block.gaslimit +\r\n                        ((uint256(keccak256(abi.encodePacked(msg.sender)))) /\r\n                            (block.timestamp)) +\r\n                        block.number\r\n                )\r\n            )\r\n        );\r\n\r\n        return (seed - ((seed / 1000) * 1000));\r\n    }\r\n\r\n    function deleteCustodyAt(uint256 _index, address _user) private {\r\n        delete _custodyList[_user][_index];\r\n        _custodyList[_user][_index] = _custodyList[_user][\r\n            _custodyList[_user].length - 1\r\n        ];\r\n        _custodyList[_user].pop();\r\n    }\r\n\r\n    function removeCustody(uint256 _goodsId, address _user) private {\r\n        uint256 back = _custodyList[_user].length - 1;\r\n        uint256 front = 0;\r\n\r\n        while (front <= back) {\r\n            if (_custodyList[_user][front] == _goodsId) {\r\n                deleteCustodyAt(front, _user);\r\n\r\n                break;\r\n            } else if (_custodyList[_user][back] == _goodsId) {\r\n                deleteCustodyAt(back, _user);\r\n\r\n                break;\r\n            }\r\n\r\n            front += 1;\r\n            back -= 1;\r\n        }\r\n    }\r\n\r\n    function createGood(string memory _displayName, address _goodsOwner)\r\n        external\r\n        manufacturerOnly(msg.sender)\r\n        userExist(_goodsOwner)\r\n    {\r\n        uint256 generatedGoodsId = rand();\r\n\r\n        _allGoods[generatedGoodsId].exist = true;\r\n        _allGoods[generatedGoodsId].locked = false;\r\n        _allGoods[generatedGoodsId].id = generatedGoodsId;\r\n        _allGoods[generatedGoodsId].displayName = _displayName;\r\n        _allGoods[generatedGoodsId].owner = _goodsOwner;\r\n        _allGoods[generatedGoodsId].currentCustody = msg.sender;\r\n        _allGoods[generatedGoodsId].custodyList.push(msg.sender);\r\n\r\n        _goodsList[_goodsOwner].push(generatedGoodsId);\r\n        _custodyList[msg.sender].push(generatedGoodsId);\r\n\r\n        emit ItemChangeHands(\r\n            generatedGoodsId,\r\n            msg.sender,\r\n            _goodsOwner,\r\n            \"Goods manufactured\"\r\n        );\r\n    }\r\n\r\n    function moveCustody(uint256 _goodsId, address _to)\r\n        external\r\n        goodsExist(_goodsId)\r\n        inCustody(_goodsId, msg.sender)\r\n        userExist(_to)\r\n    {\r\n        require(\r\n            !_allGoods[_goodsId].locked,\r\n            \"Owner has locked change of custody\"\r\n        );\r\n\r\n        _allGoods[_goodsId].currentCustody = _to;\r\n        _allGoods[_goodsId].custodyList.push(_to);\r\n\r\n        removeCustody(_goodsId, msg.sender);\r\n        _custodyList[_to].push(_goodsId);\r\n\r\n        emit ItemChangeHands(\r\n            _goodsId,\r\n            _to,\r\n            _allGoods[_goodsId].owner,\r\n            \"Goods changed custody\"\r\n        );\r\n    }\r\n\r\n    function lockGoods(uint256 _goodsId, bool _lockStatus)\r\n        external\r\n        goodsExist(_goodsId)\r\n    {\r\n        require(\r\n            _allGoods[_goodsId].owner == msg.sender,\r\n            \"User are not the goods owner\"\r\n        );\r\n\r\n        _allGoods[_goodsId].locked = _lockStatus;\r\n    }\r\n}\r\n",
  "sourcePath": "D:\\Code\\trackr\\smart-contract\\contracts\\Trackr.sol",
  "compiler": {
    "name": "solc",
    "version": "0.8.10+commit.fc410830.Emscripten.clang"
  },
  "schemaVersion": "3.4.3",
  "updatedAt": "2021-11-20T15:38:38.223Z",
  "networkType": "ethereum",
  "devdoc": {
    "kind": "dev",
    "methods": {
      "owner()": {
        "details": "Returns the address of the current owner."
      },
      "renounceOwnership()": {
        "details": "Leaves the contract without owner. It will not be possible to call `onlyOwner` functions anymore. Can only be called by the current owner. NOTE: Renouncing ownership will leave the contract without an owner, thereby removing any functionality that is only available to the owner."
      },
      "transferOwnership(address)": {
        "details": "Transfers ownership of the contract to a new account (`newOwner`). Can only be called by the current owner."
      }
    },
    "stateVariables": {
      "_allGoods": {
        "details": "This variable will hold all of the goods, with the id being a uint256"
      },
      "_custodyList": {
        "details": "This variable hold all of the item a user has custody currently"
      },
      "_goodsList": {
        "details": "This variable holds all of goods id owned by some address"
      }
    },
    "version": 1
  },
  "userdoc": {
    "kind": "user",
    "methods": {},
    "version": 1
  }
}