{
  "contractName": "Trackr",
  "abi": [
    {
      "anonymous": false,
      "inputs": [
        {
          "indexed": true,
          "internalType": "uint256",
          "name": "_goodsId",
          "type": "uint256"
        },
        {
          "indexed": true,
          "internalType": "address",
          "name": "_to",
          "type": "address"
        },
        {
          "indexed": true,
          "internalType": "address",
          "name": "_owner",
          "type": "address"
        },
        {
          "indexed": false,
          "internalType": "string",
          "name": "_reason",
          "type": "string"
        }
      ],
      "name": "ItemChangeHands",
      "type": "event"
    },
    {
      "anonymous": false,
      "inputs": [
        {
          "indexed": true,
          "internalType": "address",
          "name": "previousOwner",
          "type": "address"
        },
        {
          "indexed": true,
          "internalType": "address",
          "name": "newOwner",
          "type": "address"
        }
      ],
      "name": "OwnershipTransferred",
      "type": "event"
    },
    {
      "inputs": [
        {
          "internalType": "address",
          "name": "_userAddress",
          "type": "address"
        }
      ],
      "name": "getUser",
      "outputs": [
        {
          "components": [
            {
              "internalType": "bool",
              "name": "exist",
              "type": "bool"
            },
            {
              "internalType": "string",
              "name": "display_name",
              "type": "string"
            },
            {
              "internalType": "enum Identity.USER_TYPE",
              "name": "user_type",
              "type": "uint8"
            }
          ],
          "internalType": "struct Identity.User",
          "name": "",
          "type": "tuple"
        }
      ],
      "stateMutability": "view",
      "type": "function",
      "constant": true
    },
    {
      "inputs": [],
      "name": "owner",
      "outputs": [
        {
          "internalType": "address",
          "name": "",
          "type": "address"
        }
      ],
      "stateMutability": "view",
      "type": "function",
      "constant": true
    },
    {
      "inputs": [
        {
          "internalType": "string",
          "name": "_displayName",
          "type": "string"
        }
      ],
      "name": "registerAsCustomer",
      "outputs": [],
      "stateMutability": "nonpayable",
      "type": "function"
    },
    {
      "inputs": [
        {
          "internalType": "string",
          "name": "_displayName",
          "type": "string"
        }
      ],
      "name": "registerAsManufacturer",
      "outputs": [],
      "stateMutability": "nonpayable",
      "type": "function"
    },
    {
      "inputs": [],
      "name": "renounceOwnership",
      "outputs": [],
      "stateMutability": "nonpayable",
      "type": "function"
    },
    {
      "inputs": [
        {
          "internalType": "address",
          "name": "newOwner",
          "type": "address"
        }
      ],
      "name": "transferOwnership",
      "outputs": [],
      "stateMutability": "nonpayable",
      "type": "function"
    },
    {
      "inputs": [
        {
          "internalType": "uint256",
          "name": "_goodsId",
          "type": "uint256"
        }
      ],
      "name": "getGoods",
      "outputs": [
        {
          "components": [
            {
              "internalType": "bool",
              "name": "exist",
              "type": "bool"
            },
            {
              "internalType": "bool",
              "name": "locked",
              "type": "bool"
            },
            {
              "internalType": "uint256",
              "name": "id",
              "type": "uint256"
            },
            {
              "internalType": "string",
              "name": "displayName",
              "type": "string"
            },
            {
              "internalType": "address",
              "name": "owner",
              "type": "address"
            },
            {
              "internalType": "address",
              "name": "currentCustody",
              "type": "address"
            },
            {
              "internalType": "address[]",
              "name": "custodyList",
              "type": "address[]"
            }
          ],
          "internalType": "struct Trackr.Goods",
          "name": "",
          "type": "tuple"
        }
      ],
      "stateMutability": "view",
      "type": "function",
      "constant": true
    },
    {
      "inputs": [],
      "name": "getUserGoodsList",
      "outputs": [
        {
          "internalType": "uint256[]",
          "name": "",
          "type": "uint256[]"
        }
      ],
      "stateMutability": "view",
      "type": "function",
      "constant": true
    },
    {
      "inputs": [],
      "name": "getUserCustodyList",
      "outputs": [
        {
          "internalType": "uint256[]",
          "name": "",
          "type": "uint256[]"
        }
      ],
      "stateMutability": "view",
      "type": "function",
      "constant": true
    },
    {
      "inputs": [
        {
          "internalType": "string",
          "name": "_displayName",
          "type": "string"
        },
        {
          "internalType": "address",
          "name": "_goodsOwner",
          "type": "address"
        }
      ],
      "name": "createGood",
      "outputs": [],
      "stateMutability": "nonpayable",
      "type": "function"
    },
    {
      "inputs": [
        {
          "internalType": "uint256",
          "name": "_goodsId",
          "type": "uint256"
        },
        {
          "internalType": "address",
          "name": "_to",
          "type": "address"
        }
      ],
      "name": "moveCustody",
      "outputs": [],
      "stateMutability": "nonpayable",
      "type": "function"
    },
    {
      "inputs": [
        {
          "internalType": "uint256",
          "name": "_goodsId",
          "type": "uint256"
        },
        {
          "internalType": "bool",
          "name": "_lockStatus",
          "type": "bool"
        }
      ],
      "name": "lockGoods",
      "outputs": [],
      "stateMutability": "nonpayable",
      "type": "function"
    }
  ],
  "bytecode": "0x60806040523480156200001157600080fd5b5062000032620000266200003860201b60201c565b6200004060201b60201c565b62000106565b600033905090565b6000600160009054906101000a900473ffffffffffffffffffffffffffffffffffffffff16905081600160006101000a81548173ffffffffffffffffffffffffffffffffffffffff021916908373ffffffffffffffffffffffffffffffffffffffff1602179055508173ffffffffffffffffffffffffffffffffffffffff168173ffffffffffffffffffffffffffffffffffffffff167f8be0079c531659141344cd1fd0a4f28419497f9722a3daafe3b4186f6b6457e060405160405180910390a35050565b612c0d80620001166000396000f3fe608060405234801561001057600080fd5b50600436106100b45760003560e01c80637e0a81a2116100715780637e0a81a214610165578063896a1cad146101835780638da5cb5b1461019f578063b2590033146101bd578063c98b6bb3146101ed578063f2fde38b14610209576100b4565b8063241c7c43146100b95780633cfa7bb5146100d55780634036ff4f146100f35780636bae0c1a1461010f5780636f77926b1461012b578063715018a61461015b575b600080fd5b6100d360048036038101906100ce9190611c13565b610225565b005b6100dd61066f565b6040516100ea9190611d11565b60405180910390f35b61010d60048036038101906101089190611e79565b610704565b005b61012960048036038101906101249190611f0d565b610b51565b005b61014560048036038101906101409190611f4d565b610c8c565b60405161015291906120d8565b60405180910390f35b610163610dcc565b005b61016d610e54565b60405161017a9190611d11565b60405180910390f35b61019d600480360381019061019891906120fa565b610ee9565b005b6101a761105a565b6040516101b49190612152565b60405180910390f35b6101d760048036038101906101d2919061216d565b611084565b6040516101e491906122fb565b60405180910390f35b610207600480360381019061020291906120fa565b6112bd565b005b610223600480360381019061021e9190611f4d565b61142d565b005b816002600082815260200190815260200160002060000160009054906101000a900460ff16610289576040517f08c379a00000000000000000000000000000000000000000000000000000000081526004016102809061237a565b60405180910390fd5b82338073ffffffffffffffffffffffffffffffffffffffff166002600084815260200190815260200160002060040160009054906101000a900473ffffffffffffffffffffffffffffffffffffffff1673ffffffffffffffffffffffffffffffffffffffff161461032f576040517f08c379a00000000000000000000000000000000000000000000000000000000081526004016103269061240c565b60405180910390fd5b836000808273ffffffffffffffffffffffffffffffffffffffff1673ffffffffffffffffffffffffffffffffffffffff16815260200190815260200160002060000160009054906101000a900460ff166103be576040517f08c379a00000000000000000000000000000000000000000000000000000000081526004016103b590612478565b60405180910390fd5b3373ffffffffffffffffffffffffffffffffffffffff168573ffffffffffffffffffffffffffffffffffffffff16141561042d576040517f08c379a0000000000000000000000000000000000000000000000000000000008152600401610424906124e4565b60405180910390fd5b6002600087815260200190815260200160002060000160019054906101000a900460ff1615610491576040517f08c379a000000000000000000000000000000000000000000000000000000000815260040161048890612576565b60405180910390fd5b846002600088815260200190815260200160002060040160006101000a81548173ffffffffffffffffffffffffffffffffffffffff021916908373ffffffffffffffffffffffffffffffffffffffff16021790555060026000878152602001908152602001600020600501859080600181540180825580915050600190039060005260206000200160009091909190916101000a81548173ffffffffffffffffffffffffffffffffffffffff021916908373ffffffffffffffffffffffffffffffffffffffff1602179055506105678633611525565b600460008673ffffffffffffffffffffffffffffffffffffffff1673ffffffffffffffffffffffffffffffffffffffff1681526020019081526020016000208690806001815401808255809150506001900390600052602060002001600090919091909150556002600087815260200190815260200160002060030160009054906101000a900473ffffffffffffffffffffffffffffffffffffffff1673ffffffffffffffffffffffffffffffffffffffff168573ffffffffffffffffffffffffffffffffffffffff16877f5319b2e64716e2bff94b11e02957b625f479996ac3a535d27678a61f9c412a9160405161065f906125e2565b60405180910390a4505050505050565b6060600360003373ffffffffffffffffffffffffffffffffffffffff1673ffffffffffffffffffffffffffffffffffffffff1681526020019081526020016000208054806020026020016040519081016040528092919081815260200182805480156106fa57602002820191906000526020600020905b8154815260200190600101908083116106e6575b5050505050905090565b336000600181111561071957610718612011565b5b6000808373ffffffffffffffffffffffffffffffffffffffff1673ffffffffffffffffffffffffffffffffffffffff16815260200190815260200160002060020160009054906101000a900460ff16600181111561077a57610779612011565b5b146107ba576040517f08c379a00000000000000000000000000000000000000000000000000000000081526004016107b19061264e565b60405180910390fd5b816000808273ffffffffffffffffffffffffffffffffffffffff1673ffffffffffffffffffffffffffffffffffffffff16815260200190815260200160002060000160009054906101000a900460ff16610849576040517f08c379a000000000000000000000000000000000000000000000000000000000815260040161084090612478565b60405180910390fd5b600061085361168f565b905060016002600083815260200190815260200160002060000160006101000a81548160ff02191690831515021790555060006002600083815260200190815260200160002060000160016101000a81548160ff021916908315150217905550806002600083815260200190815260200160002060010181905550846002600083815260200190815260200160002060020190805190602001906108f8929190611a26565b50836002600083815260200190815260200160002060030160006101000a81548173ffffffffffffffffffffffffffffffffffffffff021916908373ffffffffffffffffffffffffffffffffffffffff160217905550336002600083815260200190815260200160002060040160006101000a81548173ffffffffffffffffffffffffffffffffffffffff021916908373ffffffffffffffffffffffffffffffffffffffff16021790555060026000828152602001908152602001600020600501339080600181540180825580915050600190039060005260206000200160009091909190916101000a81548173ffffffffffffffffffffffffffffffffffffffff021916908373ffffffffffffffffffffffffffffffffffffffff160217905550600360008573ffffffffffffffffffffffffffffffffffffffff1673ffffffffffffffffffffffffffffffffffffffff168152602001908152602001600020819080600181540180825580915050600190039060005260206000200160009091909190915055600460003373ffffffffffffffffffffffffffffffffffffffff1673ffffffffffffffffffffffffffffffffffffffff1681526020019081526020016000208190806001815401808255809150506001900390600052602060002001600090919091909150558373ffffffffffffffffffffffffffffffffffffffff163373ffffffffffffffffffffffffffffffffffffffff16827f5319b2e64716e2bff94b11e02957b625f479996ac3a535d27678a61f9c412a91604051610b42906126ba565b60405180910390a45050505050565b816002600082815260200190815260200160002060000160009054906101000a900460ff16610bb5576040517f08c379a0000000000000000000000000000000000000000000000000000000008152600401610bac9061237a565b60405180910390fd5b3373ffffffffffffffffffffffffffffffffffffffff166002600085815260200190815260200160002060030160009054906101000a900473ffffffffffffffffffffffffffffffffffffffff1673ffffffffffffffffffffffffffffffffffffffff1614610c59576040517f08c379a0000000000000000000000000000000000000000000000000000000008152600401610c5090612726565b60405180910390fd5b816002600085815260200190815260200160002060000160016101000a81548160ff021916908315150217905550505050565b610c94611aac565b6000808373ffffffffffffffffffffffffffffffffffffffff1673ffffffffffffffffffffffffffffffffffffffff1681526020019081526020016000206040518060600160405290816000820160009054906101000a900460ff16151515158152602001600182018054610d0890612775565b80601f0160208091040260200160405190810160405280929190818152602001828054610d3490612775565b8015610d815780601f10610d5657610100808354040283529160200191610d81565b820191906000526020600020905b815481529060010190602001808311610d6457829003601f168201915b505050505081526020016002820160009054906101000a900460ff166001811115610daf57610dae612011565b5b6001811115610dc157610dc0612011565b5b815250509050919050565b610dd4611787565b73ffffffffffffffffffffffffffffffffffffffff16610df261105a565b73ffffffffffffffffffffffffffffffffffffffff1614610e48576040517f08c379a0000000000000000000000000000000000000000000000000000000008152600401610e3f906127f3565b60405180910390fd5b610e52600061178f565b565b6060600460003373ffffffffffffffffffffffffffffffffffffffff1673ffffffffffffffffffffffffffffffffffffffff168152602001908152602001600020805480602002602001604051908101604052809291908181526020018280548015610edf57602002820191906000526020600020905b815481526020019060010190808311610ecb575b5050505050905090565b6000803373ffffffffffffffffffffffffffffffffffffffff1673ffffffffffffffffffffffffffffffffffffffff16815260200190815260200160002060000160009054906101000a900460ff1615610f78576040517f08c379a0000000000000000000000000000000000000000000000000000000008152600401610f6f9061285f565b60405180910390fd5b604051806060016040528060011515815260200182815260200160006001811115610fa657610fa5612011565b5b8152506000803373ffffffffffffffffffffffffffffffffffffffff1673ffffffffffffffffffffffffffffffffffffffff16815260200190815260200160002060008201518160000160006101000a81548160ff0219169083151502179055506020820151816001019080519060200190611023929190611a26565b5060408201518160020160006101000a81548160ff0219169083600181111561104f5761104e612011565b5b021790555090505050565b6000600160009054906101000a900473ffffffffffffffffffffffffffffffffffffffff16905090565b61108c611ae1565b600260008381526020019081526020016000206040518060e00160405290816000820160009054906101000a900460ff161515151581526020016000820160019054906101000a900460ff16151515158152602001600182015481526020016002820180546110fa90612775565b80601f016020809104026020016040519081016040528092919081815260200182805461112690612775565b80156111735780601f1061114857610100808354040283529160200191611173565b820191906000526020600020905b81548152906001019060200180831161115657829003601f168201915b505050505081526020016003820160009054906101000a900473ffffffffffffffffffffffffffffffffffffffff1673ffffffffffffffffffffffffffffffffffffffff1673ffffffffffffffffffffffffffffffffffffffff1681526020016004820160009054906101000a900473ffffffffffffffffffffffffffffffffffffffff1673ffffffffffffffffffffffffffffffffffffffff1673ffffffffffffffffffffffffffffffffffffffff168152602001600582018054806020026020016040519081016040528092919081815260200182805480156112ad57602002820191906000526020600020905b8160009054906101000a900473ffffffffffffffffffffffffffffffffffffffff1673ffffffffffffffffffffffffffffffffffffffff1681526020019060010190808311611263575b5050505050815250509050919050565b6000803373ffffffffffffffffffffffffffffffffffffffff1673ffffffffffffffffffffffffffffffffffffffff16815260200190815260200160002060000160009054906101000a900460ff161561134c576040517f08c379a00000000000000000000000000000000000000000000000000000000081526004016113439061285f565b60405180910390fd5b604051806060016040528060011515815260200182815260200160018081111561137957611378612011565b5b8152506000803373ffffffffffffffffffffffffffffffffffffffff1673ffffffffffffffffffffffffffffffffffffffff16815260200190815260200160002060008201518160000160006101000a81548160ff02191690831515021790555060208201518160010190805190602001906113f6929190611a26565b5060408201518160020160006101000a81548160ff0219169083600181111561142257611421612011565b5b021790555090505050565b611435611787565b73ffffffffffffffffffffffffffffffffffffffff1661145361105a565b73ffffffffffffffffffffffffffffffffffffffff16146114a9576040517f08c379a00000000000000000000000000000000000000000000000000000000081526004016114a0906127f3565b60405180910390fd5b600073ffffffffffffffffffffffffffffffffffffffff168173ffffffffffffffffffffffffffffffffffffffff161415611519576040517f08c379a0000000000000000000000000000000000000000000000000000000008152600401611510906128f1565b60405180910390fd5b6115228161178f565b50565b60006001600460008473ffffffffffffffffffffffffffffffffffffffff1673ffffffffffffffffffffffffffffffffffffffff168152602001908152602001600020805490506115769190612940565b905060005b8181116116895783600460008573ffffffffffffffffffffffffffffffffffffffff1673ffffffffffffffffffffffffffffffffffffffff16815260200190815260200160002082815481106115d4576115d3612974565b5b906000526020600020015414156115f4576115ef8184611855565b611689565b83600460008573ffffffffffffffffffffffffffffffffffffffff1673ffffffffffffffffffffffffffffffffffffffff168152602001908152602001600020838154811061164657611645612974565b5b90600052602060002001541415611666576116618284611855565b611689565b60018161167391906129a3565b90506001826116829190612940565b915061157b565b50505050565b6000804342336040516020016116a59190612a41565b6040516020818303038152906040528051906020012060001c6116c89190612a8b565b4542416040516020016116db9190612af7565b6040516020818303038152906040528051906020012060001c6116fe9190612a8b565b444261170a91906129a3565b61171491906129a3565b61171e91906129a3565b61172891906129a3565b61173291906129a3565b6040516020016117429190612b33565b6040516020818303038152906040528051906020012060001c90506103e8808261176c9190612a8b565b6117769190612b4e565b816117819190612940565b91505090565b600033905090565b6000600160009054906101000a900473ffffffffffffffffffffffffffffffffffffffff16905081600160006101000a81548173ffffffffffffffffffffffffffffffffffffffff021916908373ffffffffffffffffffffffffffffffffffffffff1602179055508173ffffffffffffffffffffffffffffffffffffffff168173ffffffffffffffffffffffffffffffffffffffff167f8be0079c531659141344cd1fd0a4f28419497f9722a3daafe3b4186f6b6457e060405160405180910390a35050565b600460008273ffffffffffffffffffffffffffffffffffffffff1673ffffffffffffffffffffffffffffffffffffffff16815260200190815260200160002082815481106118a6576118a5612974565b5b9060005260206000200160009055600460008273ffffffffffffffffffffffffffffffffffffffff1673ffffffffffffffffffffffffffffffffffffffff1681526020019081526020016000206001600460008473ffffffffffffffffffffffffffffffffffffffff1673ffffffffffffffffffffffffffffffffffffffff168152602001908152602001600020805490506119429190612940565b8154811061195357611952612974565b5b9060005260206000200154600460008373ffffffffffffffffffffffffffffffffffffffff1673ffffffffffffffffffffffffffffffffffffffff16815260200190815260200160002083815481106119af576119ae612974565b5b9060005260206000200181905550600460008273ffffffffffffffffffffffffffffffffffffffff1673ffffffffffffffffffffffffffffffffffffffff168152602001908152602001600020805480611a0c57611a0b612ba8565b5b600190038181906000526020600020016000905590555050565b828054611a3290612775565b90600052602060002090601f016020900481019282611a545760008555611a9b565b82601f10611a6d57805160ff1916838001178555611a9b565b82800160010185558215611a9b579182015b82811115611a9a578251825591602001919060010190611a7f565b5b509050611aa89190611b4e565b5090565b60405180606001604052806000151581526020016060815260200160006001811115611adb57611ada612011565b5b81525090565b6040518060e001604052806000151581526020016000151581526020016000815260200160608152602001600073ffffffffffffffffffffffffffffffffffffffff168152602001600073ffffffffffffffffffffffffffffffffffffffff168152602001606081525090565b5b80821115611b67576000816000905550600101611b4f565b5090565b6000604051905090565b600080fd5b600080fd5b6000819050919050565b611b9281611b7f565b8114611b9d57600080fd5b50565b600081359050611baf81611b89565b92915050565b600073ffffffffffffffffffffffffffffffffffffffff82169050919050565b6000611be082611bb5565b9050919050565b611bf081611bd5565b8114611bfb57600080fd5b50565b600081359050611c0d81611be7565b92915050565b60008060408385031215611c2a57611c29611b75565b5b6000611c3885828601611ba0565b9250506020611c4985828601611bfe565b9150509250929050565b600081519050919050565b600082825260208201905092915050565b6000819050602082019050919050565b611c8881611b7f565b82525050565b6000611c9a8383611c7f565b60208301905092915050565b6000602082019050919050565b6000611cbe82611c53565b611cc88185611c5e565b9350611cd383611c6f565b8060005b83811015611d04578151611ceb8882611c8e565b9750611cf683611ca6565b925050600181019050611cd7565b5085935050505092915050565b60006020820190508181036000830152611d2b8184611cb3565b905092915050565b600080fd5b600080fd5b6000601f19601f8301169050919050565b7f4e487b7100000000000000000000000000000000000000000000000000000000600052604160045260246000fd5b611d8682611d3d565b810181811067ffffffffffffffff82111715611da557611da4611d4e565b5b80604052505050565b6000611db8611b6b565b9050611dc48282611d7d565b919050565b600067ffffffffffffffff821115611de457611de3611d4e565b5b611ded82611d3d565b9050602081019050919050565b82818337600083830152505050565b6000611e1c611e1784611dc9565b611dae565b905082815260208101848484011115611e3857611e37611d38565b5b611e43848285611dfa565b509392505050565b600082601f830112611e6057611e5f611d33565b5b8135611e70848260208601611e09565b91505092915050565b60008060408385031215611e9057611e8f611b75565b5b600083013567ffffffffffffffff811115611eae57611ead611b7a565b5b611eba85828601611e4b565b9250506020611ecb85828601611bfe565b9150509250929050565b60008115159050919050565b611eea81611ed5565b8114611ef557600080fd5b50565b600081359050611f0781611ee1565b92915050565b60008060408385031215611f2457611f23611b75565b5b6000611f3285828601611ba0565b9250506020611f4385828601611ef8565b9150509250929050565b600060208284031215611f6357611f62611b75565b5b6000611f7184828501611bfe565b91505092915050565b611f8381611ed5565b82525050565b600081519050919050565b600082825260208201905092915050565b60005b83811015611fc3578082015181840152602081019050611fa8565b83811115611fd2576000848401525b50505050565b6000611fe382611f89565b611fed8185611f94565b9350611ffd818560208601611fa5565b61200681611d3d565b840191505092915050565b7f4e487b7100000000000000000000000000000000000000000000000000000000600052602160045260246000fd5b6002811061205157612050612011565b5b50565b600081905061206282612040565b919050565b600061207282612054565b9050919050565b61208281612067565b82525050565b60006060830160008301516120a06000860182611f7a565b50602083015184820360208601526120b88282611fd8565b91505060408301516120cd6040860182612079565b508091505092915050565b600060208201905081810360008301526120f28184612088565b905092915050565b6000602082840312156121105761210f611b75565b5b600082013567ffffffffffffffff81111561212e5761212d611b7a565b5b61213a84828501611e4b565b91505092915050565b61214c81611bd5565b82525050565b60006020820190506121676000830184612143565b92915050565b60006020828403121561218357612182611b75565b5b600061219184828501611ba0565b91505092915050565b6121a381611bd5565b82525050565b600081519050919050565b600082825260208201905092915050565b6000819050602082019050919050565b60006121e1838361219a565b60208301905092915050565b6000602082019050919050565b6000612205826121a9565b61220f81856121b4565b935061221a836121c5565b8060005b8381101561224b57815161223288826121d5565b975061223d836121ed565b92505060018101905061221e565b5085935050505092915050565b600060e0830160008301516122706000860182611f7a565b5060208301516122836020860182611f7a565b5060408301516122966040860182611c7f565b50606083015184820360608601526122ae8282611fd8565b91505060808301516122c3608086018261219a565b5060a08301516122d660a086018261219a565b5060c083015184820360c08601526122ee82826121fa565b9150508091505092915050565b600060208201905081810360008301526123158184612258565b905092915050565b600082825260208201905092915050565b7f476f6f647320646f65736e277420657869737400000000000000000000000000600082015250565b600061236460138361231d565b915061236f8261232e565b602082019050919050565b6000602082019050818103600083015261239381612357565b9050919050565b7f55736572206172652063757272656e746c79206e6f7420696e20637573746f6460008201527f79206f662074686520676f6f6473000000000000000000000000000000000000602082015250565b60006123f6602e8361231d565b91506124018261239a565b604082019050919050565b60006020820190508181036000830152612425816123e9565b9050919050565b7f5573657220646f6573206e6f7420657869737473000000000000000000000000600082015250565b600061246260148361231d565b915061246d8261242c565b602082019050919050565b6000602082019050818103600083015261249181612455565b9050919050565b7f55736572206d6f76696e6720746f20697473656c660000000000000000000000600082015250565b60006124ce60158361231d565b91506124d982612498565b602082019050919050565b600060208201905081810360008301526124fd816124c1565b9050919050565b7f4f776e657220686173206c6f636b6564206368616e6765206f6620637573746f60008201527f6479000000000000000000000000000000000000000000000000000000000000602082015250565b600061256060228361231d565b915061256b82612504565b604082019050919050565b6000602082019050818103600083015261258f81612553565b9050919050565b7f476f6f6473206368616e67656420637573746f64790000000000000000000000600082015250565b60006125cc60158361231d565b91506125d782612596565b602082019050919050565b600060208201905081810360008301526125fb816125bf565b9050919050565b7f5573657220617265206e6f74206d616e75666163747572657200000000000000600082015250565b600061263860198361231d565b915061264382612602565b602082019050919050565b600060208201905081810360008301526126678161262b565b9050919050565b7f476f6f6473206d616e7566616374757265640000000000000000000000000000600082015250565b60006126a460128361231d565b91506126af8261266e565b602082019050919050565b600060208201905081810360008301526126d381612697565b9050919050565b7f5573657220617265206e6f742074686520676f6f6473206f776e657200000000600082015250565b6000612710601c8361231d565b915061271b826126da565b602082019050919050565b6000602082019050818103600083015261273f81612703565b9050919050565b7f4e487b7100000000000000000000000000000000000000000000000000000000600052602260045260246000fd5b6000600282049050600182168061278d57607f821691505b602082108114156127a1576127a0612746565b5b50919050565b7f4f776e61626c653a2063616c6c6572206973206e6f7420746865206f776e6572600082015250565b60006127dd60208361231d565b91506127e8826127a7565b602082019050919050565b6000602082019050818103600083015261280c816127d0565b9050919050565b7f5573657220616c72656164792065786973747300000000000000000000000000600082015250565b600061284960138361231d565b915061285482612813565b602082019050919050565b600060208201905081810360008301526128788161283c565b9050919050565b7f4f776e61626c653a206e6577206f776e657220697320746865207a65726f206160008201527f6464726573730000000000000000000000000000000000000000000000000000602082015250565b60006128db60268361231d565b91506128e68261287f565b604082019050919050565b6000602082019050818103600083015261290a816128ce565b9050919050565b7f4e487b7100000000000000000000000000000000000000000000000000000000600052601160045260246000fd5b600061294b82611b7f565b915061295683611b7f565b92508282101561296957612968612911565b5b828203905092915050565b7f4e487b7100000000000000000000000000000000000000000000000000000000600052603260045260246000fd5b60006129ae82611b7f565b91506129b983611b7f565b9250827fffffffffffffffffffffffffffffffffffffffffffffffffffffffffffffffff038211156129ee576129ed612911565b5b828201905092915050565b60008160601b9050919050565b6000612a11826129f9565b9050919050565b6000612a2382612a06565b9050919050565b612a3b612a3682611bd5565b612a18565b82525050565b6000612a4d8284612a2a565b60148201915081905092915050565b7f4e487b7100000000000000000000000000000000000000000000000000000000600052601260045260246000fd5b6000612a9682611b7f565b9150612aa183611b7f565b925082612ab157612ab0612a5c565b5b828204905092915050565b6000612ac782611bb5565b9050919050565b6000612ad982612a06565b9050919050565b612af1612aec82612abc565b612ace565b82525050565b6000612b038284612ae0565b60148201915081905092915050565b6000819050919050565b612b2d612b2882611b7f565b612b12565b82525050565b6000612b3f8284612b1c565b60208201915081905092915050565b6000612b5982611b7f565b9150612b6483611b7f565b9250817fffffffffffffffffffffffffffffffffffffffffffffffffffffffffffffffff0483118215151615612b9d57612b9c612911565b5b828202905092915050565b7f4e487b7100000000000000000000000000000000000000000000000000000000600052603160045260246000fdfea2646970667358221220aee1867632e5b3962083019eab26a9a0aca9f7a409e30190191724c5957fa88064736f6c634300080a0033",
  "immutableReferences": {},
  "source": "// SPDX-License-Identifier: UNLICENSED\r\npragma solidity >=0.8.10;\r\n\r\nimport \"./Identity.sol\";\r\nimport \"@openzeppelin/contracts/access/Ownable.sol\";\r\n\r\ncontract Trackr is Identity, Ownable {\r\n    struct Goods {\r\n        bool exist;\r\n        bool locked;\r\n        uint256 id;\r\n        string displayName;\r\n        address owner;\r\n        address currentCustody;\r\n        address[] custodyList;\r\n    }\r\n\r\n    event ItemChangeHands(\r\n        uint256 indexed _goodsId,\r\n        address indexed _to,\r\n        address indexed _owner,\r\n        string _reason\r\n    );\r\n\r\n    /// @dev This variable will hold all of the goods, with the id being a uint256\r\n    mapping(uint256 => Goods) private _allGoods;\r\n\r\n    /// @dev This variable holds all of goods id owned by some address\r\n    mapping(address => uint256[]) private _goodsList;\r\n\r\n    /// @dev This variable hold all of the item a user has custody currently\r\n    mapping(address => uint256[]) private _custodyList;\r\n\r\n    modifier goodsExist(uint256 _goodsId) {\r\n        require(_allGoods[_goodsId].exist, \"Goods doesn't exist\");\r\n        _;\r\n    }\r\n\r\n    modifier inCustody(uint256 _goodsId, address _user) {\r\n        require(\r\n            _allGoods[_goodsId].currentCustody == _user,\r\n            \"User are currently not in custody of the goods\"\r\n        );\r\n        _;\r\n    }\r\n\r\n    function getGoods(uint256 _goodsId) external view returns (Goods memory) {\r\n        return _allGoods[_goodsId];\r\n    }\r\n\r\n    function getUserGoodsList() external view returns (uint256[] memory) {\r\n        return _goodsList[msg.sender];\r\n    }\r\n\r\n    function getUserCustodyList() external view returns (uint256[] memory) {\r\n        return _custodyList[msg.sender];\r\n    }\r\n\r\n    /// @dev Creates pseudo-random id in uint256 format, source : https://stackoverflow.com/a/58840890\r\n    function rand() private view returns (uint256) {\r\n        uint256 seed = uint256(\r\n            keccak256(\r\n                abi.encodePacked(\r\n                    block.timestamp +\r\n                        block.difficulty +\r\n                        ((\r\n                            uint256(keccak256(abi.encodePacked(block.coinbase)))\r\n                        ) / (block.timestamp)) +\r\n                        block.gaslimit +\r\n                        ((uint256(keccak256(abi.encodePacked(msg.sender)))) /\r\n                            (block.timestamp)) +\r\n                        block.number\r\n                )\r\n            )\r\n        );\r\n\r\n        return (seed - ((seed / 1000) * 1000));\r\n    }\r\n\r\n    function deleteCustodyAt(uint256 _index, address _user) private {\r\n        delete _custodyList[_user][_index];\r\n        _custodyList[_user][_index] = _custodyList[_user][\r\n            _custodyList[_user].length - 1\r\n        ];\r\n        _custodyList[_user].pop();\r\n    }\r\n\r\n    function removeCustody(uint256 _goodsId, address _user) private {\r\n        uint256 back = _custodyList[_user].length - 1;\r\n        uint256 front = 0;\r\n\r\n        while (front <= back) {\r\n            if (_custodyList[_user][front] == _goodsId) {\r\n                deleteCustodyAt(front, _user);\r\n\r\n                break;\r\n            } else if (_custodyList[_user][back] == _goodsId) {\r\n                deleteCustodyAt(back, _user);\r\n\r\n                break;\r\n            }\r\n\r\n            front += 1;\r\n            back -= 1;\r\n        }\r\n    }\r\n\r\n    function createGood(string memory _displayName, address _goodsOwner)\r\n        external\r\n        manufacturerOnly(msg.sender)\r\n        userExist(_goodsOwner)\r\n    {\r\n        uint256 generatedGoodsId = rand();\r\n\r\n        _allGoods[generatedGoodsId].exist = true;\r\n        _allGoods[generatedGoodsId].locked = false;\r\n        _allGoods[generatedGoodsId].id = generatedGoodsId;\r\n        _allGoods[generatedGoodsId].displayName = _displayName;\r\n        _allGoods[generatedGoodsId].owner = _goodsOwner;\r\n        _allGoods[generatedGoodsId].currentCustody = msg.sender;\r\n        _allGoods[generatedGoodsId].custodyList.push(msg.sender);\r\n\r\n        _goodsList[_goodsOwner].push(generatedGoodsId);\r\n        _custodyList[msg.sender].push(generatedGoodsId);\r\n\r\n        emit ItemChangeHands(\r\n            generatedGoodsId,\r\n            msg.sender,\r\n            _goodsOwner,\r\n            \"Goods manufactured\"\r\n        );\r\n    }\r\n\r\n    function moveCustody(uint256 _goodsId, address _to)\r\n        external\r\n        goodsExist(_goodsId)\r\n        inCustody(_goodsId, msg.sender)\r\n        userExist(_to)\r\n    {\r\n        require(_to != msg.sender, \"User moving to itself\");\r\n        require(\r\n            !_allGoods[_goodsId].locked,\r\n            \"Owner has locked change of custody\"\r\n        );\r\n\r\n        _allGoods[_goodsId].currentCustody = _to;\r\n        _allGoods[_goodsId].custodyList.push(_to);\r\n\r\n        removeCustody(_goodsId, msg.sender);\r\n        _custodyList[_to].push(_goodsId);\r\n\r\n        emit ItemChangeHands(\r\n            _goodsId,\r\n            _to,\r\n            _allGoods[_goodsId].owner,\r\n            \"Goods changed custody\"\r\n        );\r\n    }\r\n\r\n    function lockGoods(uint256 _goodsId, bool _lockStatus)\r\n        external\r\n        goodsExist(_goodsId)\r\n    {\r\n        require(\r\n            _allGoods[_goodsId].owner == msg.sender,\r\n            \"User are not the goods owner\"\r\n        );\r\n\r\n        _allGoods[_goodsId].locked = _lockStatus;\r\n    }\r\n}\r\n",
  "sourcePath": "D:\\Code\\trackr\\smart-contract\\contracts\\Trackr.sol",
  "compiler": {
    "name": "solc",
    "version": "0.8.10+commit.fc410830.Emscripten.clang"
  },
  "schemaVersion": "3.4.3",
  "updatedAt": "2021-11-21T04:14:17.526Z",
  "networkType": "ethereum",
  "devdoc": {
    "kind": "dev",
    "methods": {
      "owner()": {
        "details": "Returns the address of the current owner."
      },
      "renounceOwnership()": {
        "details": "Leaves the contract without owner. It will not be possible to call `onlyOwner` functions anymore. Can only be called by the current owner. NOTE: Renouncing ownership will leave the contract without an owner, thereby removing any functionality that is only available to the owner."
      },
      "transferOwnership(address)": {
        "details": "Transfers ownership of the contract to a new account (`newOwner`). Can only be called by the current owner."
      }
    },
    "stateVariables": {
      "_allGoods": {
        "details": "This variable will hold all of the goods, with the id being a uint256"
      },
      "_custodyList": {
        "details": "This variable hold all of the item a user has custody currently"
      },
      "_goodsList": {
        "details": "This variable holds all of goods id owned by some address"
      }
    },
    "version": 1
  },
  "userdoc": {
    "kind": "user",
    "methods": {},
    "version": 1
  }
}